{
  "contractName": "VisaApplication",
  "abi": [
    {
      "constant": true,
      "inputs": [],
      "name": "destination",
      "outputs": [
        {
          "name": "",
          "type": "string"
        }
      ],
      "payable": false,
      "stateMutability": "view",
      "type": "function"
    },
    {
      "inputs": [],
      "payable": false,
      "stateMutability": "nonpayable",
      "type": "constructor"
    },
    {
      "anonymous": false,
      "inputs": [
        {
          "indexed": false,
          "name": "owner",
          "type": "address"
        },
        {
          "indexed": false,
          "name": "destination",
          "type": "string"
        }
      ],
      "name": "Application",
      "type": "event"
    },
    {
      "constant": false,
      "inputs": [],
      "name": "test",
      "outputs": [
        {
          "name": "",
          "type": "address"
        }
      ],
      "payable": false,
      "stateMutability": "nonpayable",
      "type": "function"
    }
  ],
  "bytecode": "0x608060405234801561001057600080fd5b50336000806101000a81548173ffffffffffffffffffffffffffffffffffffffff021916908373ffffffffffffffffffffffffffffffffffffffff16021790555061022b806100606000396000f30060806040526004361061004c576000357c0100000000000000000000000000000000000000000000000000000000900463ffffffff168063b269681d14610051578063f8a8fd6d146100e1575b600080fd5b34801561005d57600080fd5b50610066610138565b6040518080602001828103825283818151815260200191508051906020019080838360005b838110156100a657808201518184015260208101905061008b565b50505050905090810190601f1680156100d35780820380516001836020036101000a031916815260200191505b509250505060405180910390f35b3480156100ed57600080fd5b506100f66101d6565b604051808273ffffffffffffffffffffffffffffffffffffffff1673ffffffffffffffffffffffffffffffffffffffff16815260200191505060405180910390f35b60018054600181600116156101000203166002900480601f0160208091040260200160405190810160405280929190818152602001828054600181600116156101000203166002900480156101ce5780601f106101a3576101008083540402835291602001916101ce565b820191906000526020600020905b8154815290600101906020018083116101b157829003601f168201915b505050505081565b60008060009054906101000a900473ffffffffffffffffffffffffffffffffffffffff169050905600a165627a7a72305820d7200f2414a16f419d3e59e646f7da914e5000e74e231f8fc7984b422d6d66c50029",
  "source": "pragma solidity ^0.4.17;\n\ncontract VisaApplication {\n  address owner;\n  string public destination;\n\n  constructor() public {\n    owner = msg.sender;\n  }\n\n  event Application(address owner, string destination);\n\n  /* function addDestination() public pure returns (bool){\n      // destination = \"heaven\";\n      /* emit Application(owner, _destination);\n\n      return true;\n  } */\n  /* function addDestination() public view returns (string){\n      // destination = \"heaven\";\n      /* emit Application(owner, _destination);\n\n      return \"heaven\";\n  } */\n  function test() public returns(address) {\n    return owner;\n  }\n\n}\n",
  "sourcePath": "/Users/denielhorvatic/Documents/00_Projects/DApp/uFree/blockchain/contracts/VisaApplication.sol",
  "compiler": {
    "name": "solc",
    "version": "0.4.24+commit.e67f0147.Emscripten.clang"
  },
  "schemaVersion": "2.0.1",
  "updatedAt": "2018-07-22T12:24:32.274Z"
}